:020000040800F2
:10E00000609600202D4F0108E5E20008374F010817
:10E01000E7E20008EBE20008EFE200080000000081
:10E02000000000000000000000000000F3E2000813
:10E03000F5E20008000000002B9E0108F9410108EC
:10E04000474F0108474F0108474F0108474F010854
:10E05000474F0108474F0108474F0108474F010844
:10E060004738010877E90008474F0108474F010882
:10E07000474F0108474F0108474F0108474F010824
:10E08000474F0108474F0108474F0108474F010814
:10E09000474F0108474F0108474F0108474F010804
:10E0A000474F0108474F0108474F0108474F0108F4
:10E0B0005FE60008474F010819330108474F010880
:10E0C000474F0108474F0108474F0108474F0108D4
:10E0D000474F0108ED46010819480108474F01085C
:10E0E000FDE80008474F0108474F0108474F010866
:10E0F000474F0108474F0108474F0108474F0108A4
:10E10000474F0108474F0108474F0108474F010893
:10E11000B7490108474F0108474F0108474F010819
:10E12000474F0108474F0108474F0108474F010873
:10E13000DFF80CD01AF0F8FD00480047DFE10008D6
:10E140006096002008B500205349087000F0C4F91B
:10E1500041F63F7000F003FB00F083FB00F019FE76
:10E16000062006F08BF900F00FFB47214FF6FF70F9
:10E1700005F060F804F03EFD04F0B4FC04F04CFA45
:10E1800028B14548007820F0100043490870434802
:10E1900038B14148007820F0080008303E49087046
:10E1A00005E03D48007820F008003B490870002059
:10E1B0004FF4A0734FF4F0720146009001F0D4FACE
:10E1C0003749088A00F0B2FA4FF4C87006F07FF8B9
:10E1D0000021344808F0D8FD05F09DF908BD1FB5B1
:10E1E000092000F0A9F930483049086006F01EF80F
:10E1F00005F0F6FF00F042FB4FF4165211464FF4C3
:10E20000E13006F090F901F026F900F065F911F01F
:10E21000F2FA0FF00BF926490122086825A10DF04A
:10E220009AFA23490122486823A10DF094FA00F0DC
:10E23000C6FD0FF0C7FB68B100204FF478411FA264
:10E240001023CDE90032CDE90210642211461046B8
:10E2500001F069FE02F05BF868B100204FF47841EC
:10E260001AA21023CDE90032CDE9021064227821F0
:10E27000104601F058FEFFF765FF11F0E6FB09F0CC
:10E28000F8F90A23154A002115480AF06DFE09F035
:10E2900017FB002004B010BDA00500204931010883
:10E2A00024A402080004004000E0000808ED00E09B
:10E2B00058010020303A0000313A0000466F6E7479
:10E2C00020496E6974204661696C210053442049DD
:10E2D0006E6974204661696C21000000EC06002024
:10E2E00059DC0108704700BFFEE700BFFEE700BF32
:10E2F000FEE77047704700000CB5002001900090C9
:10E300006C48006840F480306A49086000BF694882
:10E31000006800F4003000900198401C01900098C3
:10E3200020B94FF6FF7101988842F0D1614800682A
:10E3300000F4003010B10120009001E000200090B6
:10E340000098012843D15C48006840F010005A4909
:10E3500008600846006820F003000860084600686E
:10E3600040F002000860534840685249486008463F
:10E37000406848600846406840F48060486008464D
:10E38000406820F47C1048600846406840F4E8107B
:10E3900048600846006840F08070086000BF45484B
:10E3A000006800F000700028F9D04248406820F072
:10E3B0000300404948600846406840F00200486059
:10E3C00000BF3C48406800F00C000828F9D10CBDA3
:10E3D00010B5FFF791FF10BD10B53648006840F04A
:10E3E0000100344908600846406834490840314912
:10E3F000486008460068324908402E4908600846CF
:10E40000006820F4802008600846406820F4FE0080
:10E4100048604FF41F008860FFF7DAFF4FF000609C
:10E420002849086010BD10B5002100200022214BB2
:10E430005B6803F00C0121B1042906D0082928D11A
:10E4400007E0214B214C236027E01F4B1F4C23602A
:10E4500023E0184B5B6803F47010164B5B6803F401
:10E460008032022303EB904022B9194B4343174CEF
:10E4700023600DE00F4B5B6803F4003323B1144BB2
:10E480004343124C236003E00F4B43430F4C236084
:10E4900003E00D4B0D4C236000BF00BF054B5B68D4
:10E4A000C3F303130B4CE15C084B1B68CB40074CD8
:10E4B000236010BD00100240002002400000FFF861
:10E4C000FFFFF6FE08ED00E000127A0000000020D9
:10E4D00000093D000400002008B50121102007F0CC
:10E4E00054F81020ADF800008DF8030003208DF8DB
:10E4F000020069460E4806F08BFD10210C4806F01C
:10E5000034FE08BD70B5044600250DE009480068DA
:10E5100008B9012000E00020064908604FF4967019
:10E5200005F0D5FE681CC5B2A542EFDB70BD00004A
:10E53000001001409001224270B5044600252C488D
:10E54000006840F480302A49086000BF284800680D
:10E55000400C0028FAD04FF4806025494860A01E86
:10E56000C4B20846406840EA8440486008464068B3
:10E5700040F4803048601F48006840F032001D4978
:10E5800008601B48006840F080701949086000BFAF
:10E5900017480068400E0028FAD01548406840F03F
:10E5A00002001349486005E011484068C0F3870540
:10E5B00005F00305022DF7D10121042006F0E5FF47
:10E5C0000121082006F0E1FF0121102006F0DDFF07
:10E5D0000121480206F0D9FF0121202006F0D5FFD5
:10E5E0000121402006F0C4FF012007F006F870BDAD
:10E5F00000100240002002401FB50121084606F02D
:10E60000D1FF41F28830ADF8080041F61F40ADF867
:10E6100004000020ADF80A00ADF8060001A94FF093
:10E62000804008F055F80121880708F0ADFC012270
:10E630001146900708F0C3FB0121880708F0A4FBEE
:10E640001C208DF8000003208DF801008DF80200D9
:10E6500001208DF80300684608F079FE1FBD10B553
:10E660000121880708F059FE20B14FF6FE704FF0E7
:10E670008041088210BD30B589B004468020ADF8D5
:10E68000040003208DF8060018208DF8070001A96A
:10E69000364806F0BDFC00250121022006F082FF6D
:10E6A0000121084606F071FF0121314806F081FD85
:10E6B000304800683049B0FBF1F0401E85B2ADF83B
:10E6C0000C40ADF808500020ADF80E00ADF80A007F
:10E6D00002A92A4807F0FCFF6020ADF814000120D1
:10E6E000ADF81600204604EBD071C1F34F01ADF830
:10E6F0001A100020ADF81C0005A9204808F067F8A2
:10E7000008211E4808F079FC01211C4808F03CFC57
:10E7100000211A4808F038FB204604EBD071C1F301
:10E720004F01164A3832118009B030BD10B5044689
:10E73000134890FBF4F011492C310880104890FBED
:10E74000F4F00A2190FBF1F00C49383108800121E6
:10E750000A4808F019FB01200A49087010BD10B5DD
:10E7600004462046FFF787FF10BD0000001001405F
:10E77000000C1A000000002000366E01000400406A
:10E780000048E801140000201FB50121084606F0EA
:10E79000FCFE0121B44806F00CFD0121102006F01A
:10E7A000F4FE4CF20800ADF80C0048208DF80F0084
:10E7B00003A9AE4806F02CFC0321022006F03EFD22
:10E7C0000E21022006F03AFD0F21022006F036FD50
:10E7D0000820019000208DF808000C208DF8090019
:10E7E00001208DF80A0001A807F098FC4FF4804042
:10E7F000019000208DF808000C208DF80900012000
:10E800008DF80A0001A807F089FC4FF40040019040
:10E8100000208DF808000C208DF8090001208DF8EB
:10E820000A0001A807F07AFC09208DF800000020FA
:10E830008DF801008DF8020001208DF80300684674
:10E8400008F085FD28208DF8000000208DF80100DB
:10E850008DF8020001208DF80300684608F077FD6E
:10E860001FBD08B54FF40050ADF8000048208DF8EA
:10E87000030069467E4806F0CBFB08BD08B50121C0
:10E88000042006F082FE0121102006F07EFE012009
:10E89000ADF8000003208DF8020048208DF8030039
:10E8A0006946734806F0B4FB4020ADF80000102024
:10E8B0008DF8030003208DF8020069466B4806F0CE
:10E8C000A7FB00206B49086008BD08B54020ADF8E3
:10E8D000000004208DF803006946644806F098FBA8
:10E8E00008BD012804D0022803D0032803D101E089
:10E8F00002E001E000E000BF00BF704710B508F083
:10E90000D0FE4FF4804007F06FFCB0B10A2005F054
:10E91000DEFC4FF48040584908600146534806F039
:10E920000AFC28BB5548007810BB012054490870E8
:10E930005449488AFFF7FAFE1AE04FF4004007F006
:10E9400053FCA8B10A2005F0C2FC4FF400404A492C
:10E9500008600146454806F0EEFB48B94748007894
:10E9600030B90220464908704649488AFFF7DEFE62
:10E9700008F0B2FE10BD10B508F093FE082007F0B5
:10E9800033FC00286CD00A2005F0A1FC0821374890
:10E9900006F0D1FB002860D13848007800285CD10F
:10E9A0003948007804283BD003203549087037489F
:10E9B000007880B335480078062827D2DFE800F0D9
:10E9C00026030A11181F3248C07920F00800304988
:10E9D000C8711CE02E48C07920F010002C49C87185
:10E9E00015E02B48C07920F004002949C8710EE0D9
:10E9F0002748C07920F002002549C87107E0244863
:10EA0000C07920F001002249C87100E000BF00BFBA
:10EA100000201E4908701B490889FFF787FE1CE08B
:10EA200019480078042818D11948807900F00400AA
:10EA300004280BD11748007801280ED10320104973
:10EA4000087010490889FFF771FE06E003200C49A1
:10EA500008700C490889FFF769FE082007F0D5FB0C
:10EA600008F03AFE10BD0000000430000010014024
:10EA7000000801409801224214040140A80500202A
:10EA80001500002024A40208DC05002060060020F8
:10EA9000007A00205A0000200246002105E0481CB0
:10EAA000C1B2C82901DD00207047AC48008900F0E0
:10EAB00002000028F3D0A9488281002105E0481C0B
:10EAC000C1B2C82901DD0020EEE7A448008900F0AA
:10EAD00001000028F3D0A1488089C0B2E4E700B566
:10EAE00087B0012141F2040006F04FFDE020ADF8AF
:10EAF000180018208DF81B0003208DF81A0006A9B5
:10EB0000974806F085FAE021954806F02EFB002094
:10EB1000ADF804004FF48270ADF806000020ADF8A7
:10EB200008000220ADF80A000120ADF80C004002F8
:10EB3000ADF80E003820ADF810000020ADF812003E
:10EB40000720ADF8140001A9844807F08DFB0121CE
:10EB5000824807F02EFCFF20FFF79EFF07B000BDA4
:10EB60007E4909884FF6C77211407C4A11801146D0
:10EB70000988014311801146098841F04001118044
:10EB8000704700B587B00121880306F00BFD4FF4F4
:10EB90006040ADF8180018208DF81B0003208DF898
:10EBA0001A0006A96F4806F033FA0020ADF80400F9
:10EBB0004FF48270ADF806000020ADF80800022086
:10EBC000ADF80A000120ADF80C004002ADF80E00CF
:10EBD0003820ADF810000020ADF812000720ADF885
:10EBE000140001A9604807F03FFB01215E4807F0CF
:10EBF000E0FB07B000BD5C4909884FF6C7721140C1
:10EC0000594A11801146098801431180114609882B
:10EC100041F04001118070470246002105E0481C88
:10EC2000C1B2C82901DD002070474F480830008874
:10EC300000F002000028F2D04B480C300280002186
:10EC400005E0481CC1B2C82901DD0020ECE74648B8
:10EC50000830008800F001000028F2D042480C3053
:10EC60000088C0B2E0E700B587B00121C80306F014
:10EC700099FC0121082006F088FC3820ADF8180026
:10EC800018208DF81B0003208DF81A0006A93548BE
:10EC900006F0BEF90021354807F08BFB0020ADF8E7
:10ECA00004004FF48270ADF806000020ADF80800B3
:10ECB0000220ADF80A000020ADF80C004FF40070FF
:10ECC000ADF80E001820ADF810000020ADF81200CD
:10ECD0000720ADF8140001A9244807F0C5FA012166
:10ECE000224807F066FB07B000BD204909884FF6AF
:10ECF000C77211401D4A11801146098801431180D5
:10ED00001146098841F040011180704702460021F8
:10ED100005E0481CC1B2C82901DD00207047134836
:10ED20000830008800F002000028F2D00F480C30B4
:10ED30000280002105E0481CC1B2C82901DD002085
:10ED4000ECE70A480830008800F001000028F2D003
:10ED500006480C300088C0B2E0E7000000300140F7
:10ED600000080140000C014000380040003C004019
:10ED7000012806D10121674A1160674AC2F8A4112F
:10ED800006E028B90021634A1160634AC2F8A41161
:10ED9000704708B54FF44070ADF8000010208DF8B2
:10EDA000030003208DF8020069465C4806F030F944
:10EDB0000120FFF7DDFF012005F0FFFA08BD00B5D7
:10EDC00087B00121480206F0E0FB4FF4004006F056
:10EDD00040FB0320ADF8040000208DF8070001A9D6
:10EDE0004F4806F015F94F4806F038FE0020029013
:10EDF0008DF80C008DF80D004FF460200490002079
:10EE0000059001208DF8180002A9464806F04DFE35
:10EE10000121444806F075FE424806F094FE00BF0A
:10EE2000404806F095FE0028FAD13E4806F09AFECA
:10EE300000BF3C4806F09BFE0028FAD107B000BD99
:10EE4000F0B58BB007460C4615461E460121084614
:10EE500006F08EFB384607F029F800940195002053
:10EE60000290039604908020059040000690800058
:10EE7000079020200890C001099000200A90694660
:10EE8000384607F0B5F80121384607F0DCF80BB03A
:10EE9000F0BD10B5044623480830006840F001007A
:10EEA0002049083108600723012221461D4806F049
:10EEB00094FE01211B4806F064FE00BF194800685B
:10EEC00000F002000028F9D016484C30006880B2EB
:10EED00010BD2DE9F04107460C460026002508E04C
:10EEE0003846FFF7D6FF0644052005F0F0F9681C08
:10EEF000C5B2A542F4DB0B480830006820F00100E1
:10EF0000084908310860B0B290FBF4F080B2BDE867
:10EF1000F0810000A00122420000224200100140C6
:10EF2000000C01400024014010B504464FF400419C
:10EF3000F94806F01CF94FF48051F84806F017F92B
:10EF4000F748006864F30F20F54908608915F24816
:10EF500006F00DF94FF48071EF4806F006F94FF412
:10EF60000041ED4806F001F910BD10B504464FF41C
:10EF70000041E94806F0FBF84FF48051E74806F0FD
:10EF8000F4F8E748006864F30F20E5490860891544
:10EF9000E14806F0ECF84FF48071DF4806F0E5F840
:10EFA0004FF40041DC4806F0E0F810BD10B54FF01A
:10EFB0008830DB4908390860D94800680020D84902
:10EFC00008608914D54806F0D0F84FF40041D248C3
:10EFD00006F0CDF80421D34806F0C9F8D048001F48
:10EFE0000068C4B20421CF4806F0BFF84FF40041D6
:10EFF000C94806F0BAF84FF03330C94908390860FB
:10F00000C748006840F47F40C5490860201210BD21
:10F0100070B504460D46E0B2FFF786FFE8B2FFF791
:10F02000A4FF70BD70B50446E0B2FFF77DFF052078
:10F0300005F04DF9FFF7BAFF0646FFF7B7FF46EABE
:10F040002025284670BD10B5B749087AFFF76CFF38
:10F0500010BD10B504462012FFF787FFE0B2FFF79E
:10F0600084FF10BD30B5014601F01F04C1F3451304
:10F07000CA0AE50205EB43151544A8B230BD00BF2E
:10F08000011EA0F10102D0B2FAD170472DE9F04182
:10F0900005460E46A4480088A84203DDA2484088E1
:10F0A000B04202DC0020BDE8F0814FF088309C497E
:10F0B000083908604FF6FF7099490860891497482D
:10F0C00006F053F84FF40041934806F050F804213D
:10F0D000944806F04CF8012005F0CEF80421914840
:10F0E00006F043F804218F4806F041F8012005F0AE
:10F0F000C3F88B48001F006884B20421894806F0D9
:10F1000034F80421874806F032F88548001F00686B
:10F110001FFA80F80421834806F027F8E7B24FF67B
:10F12000FF7000EA07274FF400417B4806F01DF806
:10F130004FF033307A4908390860E012C002B91242
:10F1400040EA411040EAE820ADE710B540F2731103
:10F150000720FFF75DFF10BD10B500210720FFF766
:10F1600057FF10BD10B5044674B1FFF7F5FF282016
:10F17000FFF7DAFE0A2005F0AAF81020FFF7D4FE08
:10F18000782005F0A4F80AE0FFF7DFFF1120FFF771
:10F19000CBFE782005F09BF82920FFF7C5FE10BDB7
:10F1A00070B504460D466049887AFFF7BDFE200A17
:10F1B000FFF7DBFEE0B2FFF7D8FE5B49087BFFF705
:10F1C000B3FE280AFFF7D1FEE8B2FFF7CEFEFFF745
:10F1D0003AFF70BD2DE9F041054600240027524852
:10F1E000807901281ED15048808846F60401884263
:10F1F00018D0082D15D2DFE805F00406080A0C0E19
:10F20000101206250DE007250BE0042509E0052571
:10F2100007E0012505E0002503E0032501E00225C4
:10F2200000BF00BF082D1CD2DFE805F00406090C62
:10F230000F12151800BF14E044F0800411E044F0F0
:10F2400040040EE044F0C0040BE044F0200408E069
:10F2500044F0600405E044F0A00402E044F0E0045F
:10F2600000BF00BF362744F0080421463846FFF7A8
:10F27000CFFE04F0200018B92B48807901280DD169
:10F280002948008828494988884214DA264806888F
:10F29000408825490880084646800CE022480088BE
:10F2A00021494988884206DD1F48068840881E4952
:10F2B0000880084646801C49887AFFF735FE002002
:10F2C000FFF753FE0020FFF750FE17490988491E3B
:10F2D000C1F30720FFF749FE13490978491EC8B258
:10F2E000FFF743FE1049087BFFF71EFE0020FFF7E3
:10F2F0003CFE0020FFF739FE0B494988491EC1F347
:10F300000720FFF732FE08498978491EC8B2FFF787
:10F310002CFEBDE8F0810000000801400010014013
:10F320000C0C0140001401402007002010B5D32030
:10F33000FFF7FAFD10BD70B504460D461646FE49AE
:10F34000887AFFF7F1FD2012FFF70FFEE0B2FFF71A
:10F350000CFE2012FFF709FEE0B2FFF706FEF649A9
:10F36000087BFFF7E1FD2812FFF7FFFDE8B2FFF78A
:10F37000FCFD2812FFF7F9FDE8B2FFF7F6FDEE49B4
:10F38000087AFFF7D1FD300AFFF7EFFDF0B2FFF783
:10F39000ECFD70BD10B504460120E74988714FF4BB
:10F3A000F07008804FF4A07048802C2008812A203B
:10F3B00048812B2088810120FFF70CFF10BD10B57C
:10F3C00088B000240121084606F0ECF8DB4800680C
:10F3D000DB49B0FBF1F0401E84B240F2E730ADF8FB
:10F3E0000800ADF804400020ADF80A00ADF80600B2
:10F3F00001A94FF0804007F06BF96020ADF81000D4
:10F400000120ADF812000020ADF81600ADF818008C
:10F4100004A94FF0804007F0DAF90821C80607F088
:10F42000ECFD0121880707F0AFFD0121880707F0F7
:10F43000ABFC0220ADF8000003208DF8020018207C
:10F440008DF803006946BF4805F0E2FD0120810701
:10F45000088708B010BD08B50121084606F095F8E8
:10F460000121B94805F0A5FEFFF7A9FF0420ADF87A
:10F47000000010208DF8030003208DF8020069467B
:10F48000B24805F0C5FD4FF48050ADF80000694664
:10F49000AF4805F0BDFD4FF40140ADF800006946EE
:10F4A000A84805F0B5FD4FF47F40ADF8000069466F
:10F4B000A84805F0ADFD4FF47F41A64805F055FE84
:10F4C000322004F004FF4FF48051A14805F04DFEB6
:10F4D000012004F0FCFE4FF480519D4805F047FEEA
:10F4E0000A2004F0F4FE4FF48051994805F03DFEE7
:10F4F000782004F0ECFE322004F0E9FE0121002027
:10F50000FFF786FD322004F0E2FED320FFF78AFDEC
:10F5100089498880E020FFF707FD0020FFF725FDDF
:10F520000720FFF722FD0F20FFF71FFD0D20FFF73B
:10F530001CFD1B20FFF719FD0A20FFF716FD3C20DC
:10F54000FFF713FD7820FFF710FD4A20FFF70DFDB0
:10F550000720FFF70AFD0E20FFF707FD0920FFF740
:10F5600004FD1B20FFF701FD1E20FFF7FEFC0F200E
:10F57000FFF7FBFCE120FFF7D7FC0020FFF7F5FCCD
:10F580002220FFF7F2FC2420FFF7EFFC0620FFF714
:10F59000ECFC1220FFF7E9FC0720FFF7E6FC362021
:10F5A000FFF7E3FC4720FFF7E0FC4720FFF7DDFC17
:10F5B0000620FFF7DAFC0A20FFF7D7FC0720FFF749
:10F5C000D4FC3020FFF7D1FC3720FFF7CEFC0F2012
:10F5D000FFF7CBFCC020FFF7A7FC1020FFF7C5FC0E
:10F5E0001020FFF7C2FCC120FFF79EFC4120FFF76F
:10F5F000BCFCC520FFF798FC0020FFF7B6FC2220DA
:10F60000FFF7B3FC8020FFF7B0FC3620FFF78CFC3F
:10F610004820FFF7AAFC3A20FFF786FC5520FFF7A9
:10F62000A4FCB020FFF780FC0020FFF79EFCB12077
:10F63000FFF77AFCB020FFF798FC1120FFF795FC4C
:10F64000B420FFF771FC0220FFF78FFCB620FFF714
:10F650006BFC0220FFF789FC0220FFF786FCB72035
:10F66000FFF762FCC620FFF780FCE920FFF75CFC97
:10F670000020FFF77AFCF720FFF756FCA920FFF7E0
:10F6800074FC5120FFF771FC2C20FFF76EFC8220E8
:10F69000FFF76BFC1120FFF747FC782004F017FE02
:10F6A0002920FFF741FC0120FFF774FE08BD70B56B
:10F6B0000446002520480688408846430021084625
:10F6C000FFF76EFDFFF7BFFC00BF06E0200AFFF763
:10F6D0004CFCE0B2FFF749FC6D1CB542F6D370BD9F
:10F6E0002DE9FF5F04460D4616461F460395029717
:10F6F00011480088801B401E80B201900E4800888F
:10F70000001B401E80B200904FF050084FF051098E
:10F710004FF0520A4FF0530B40460399FFF778FC25
:10F7200048460299FFF774FC50460199FFF770FCB8
:10F730005846009910E0000020070020000000203B
:10F7400000366E0100080140000230000014014044
:10F7500000100140000C0140FFF75AFC29462046EA
:10F76000FFF71EFDBDE8FF9F2DE9F84F04460D464B
:10F7700016461F46DDF828904FF0000B0020009041
:10F780002A20FFF7D1FBB4420CDD3012FFF7EDFB6E
:10F79000F0B2FFF7EAFB2012FFF7E7FBE0B2FFF75A
:10F7A000E4FB0BE02012FFF7E0FBE0B2FFF7DDFB2C
:10F7B0003012FFF7DAFBF0B2FFF7D7FB2B20FFF791
:10F7C000B3FBBD420CDD3812FFF7CFFBF8B2FFF7F9
:10F7D000CCFB2812FFF7C9FBE8B2FFF7C6FB0BE032
:10F7E0002812FFF7C2FBE8B2FFF7BFFB3812FFF7A2
:10F7F000BCFBF8B2FFF7B9FBFFF725FC301B002874
:10F8000001DB014600E04142491C1FFA81FBE81B75
:10F81000002801DB014600E04142491C89B2009109
:10F820004FF0000814E04FF0000A0BE04FEA1920F7
:10F83000FFF79BFB09F0FF00FFF797FB0AF10100C0
:10F840001FFA80FADA45F1DB08F101001FFA80F8AF
:10F8500000988045E7DBBDE8F88F2DE9FF4F85B0C4
:10F8600081468A460020039083460798A0EB09054D
:10F870000898A0EB0A06CDF80890CDF804A0002D5A
:10F8800001DD012705E00DB9002702E04FF0FF3749
:10F890006D42002E02DD4FF0010806E016B94FF070
:10F8A000000802E04FF0FF387642B54201DD2C46F9
:10F8B00000E03446002004901EE0019A91B2029AC2
:10F8C00090B2129AFFF737FD039828440390B3448F
:10F8D0000398A04205DD0398001B0390029838446A
:10F8E0000290A34504DDABEB040B0198404401906A
:10F8F0000498401C80B20490611C04988842DCDDAE
:10F9000009B0BDE8F08F2DE9F84305460E461746CD
:10F910009846089C33463A46314628460094FFF7FD
:10F920009CFF43462A46314628460094FFF795FF40
:10F9300043463A46414628460094FFF78EFF434629
:10F940003A46314638460094FFF787FFBDE8F88312
:10F950002DE9FF5F06460F469246DDF838900025F8
:10F96000D0460320A0EB4A0BAEE10F98002875D0DB
:10F97000B9F1050F73D2DFE809F00384A5C6E600EC
:10F9800034460DE07A1B91B2A0B2039AFFF7D3FC84
:10F99000A7EB080291B2A0B2039AFFF7CCFC641C5B
:10F9A0007019A042EEDC741906E07A1B91B2A0B285
:10F9B000039AFFF7C0FC641C06EB0800A042F4DCCD
:10F9C000741906E07A1991B2A0B2039AFFF7B3FC5A
:10F9D000641C06EB0800A042F4DC34460DE07A1902
:10F9E00091B2A0B2039AFFF7A6FC07EB080291B20E
:10F9F000A0B2039AFFF79FFC641C7019A042EEDCD2
:10FA0000741B0DE07A1991B2A0B2039AFFF793FC30
:10FA100007EB080291B2A0B2039AFFF78CFC641CBA
:10FA2000B442EFDBA6EB080406E07A1991B2A0B26B
:10FA3000039AFFF780FC641C701BA042F5DAA6EB6A
:10FA4000080406E07A1B91B2A0B2039AFFF773FC98
:10FA5000641C701BA042F5DC741B0FE094E092E084
:10FA60007A1B91B2A0B2039AFFF765FCA7EB0802DC
:10FA700091B2A0B2039AFFF75EFC641CB442EFDBC4
:10FA800081E034460DE07A1B91B2A0B2039AFFF7F1
:10FA900052FCA7EB080291B2A0B2039AFFF74BFC0D
:10FAA000641C7019A042EEDC741906E07A1B91B256
:10FAB000A0B2039AFFF73FFC641C06EB0800A042CB
:10FAC000F4DC60E0741906E07A1991B2A0B2039AEE
:10FAD000FFF731FC641C06EB0800A042F4DC34465E
:10FAE0000DE07A1991B2A0B2039AFFF724FC07EB5C
:10FAF000080291B2A0B2039AFFF71DFC641C7019B2
:10FB0000A042EEDC3FE0741B0DE07A1991B2A0B286
:10FB1000039AFFF710FC07EB080291B2A0B2039A18
:10FB2000FFF709FC641CB442EFDBA6EB080406E017
:10FB30007A1991B2A0B2039AFFF7FDFB641C701B07
:10FB4000A042F5DA1FE0A6EB080406E07A1B91B2AA
:10FB5000A0B2039AFFF7EFFB641C701BA042F5DC18
:10FB6000741B0DE07A1B91B2A0B2039AFFF7E3FB7E
:10FB7000A7EB080291B2A0B2039AFFF7DCFB641C6A
:10FB8000B442EFDB00BF90E0B9F1050F7ED2DFE8B1
:10FB900009F0470336251400A7EB080291B2721949
:10FBA00090B2039AFFF7C7FB7A1B91B206EB0802EB
:10FBB00090B2039AFFF7BFFB76E07A1991B206EB99
:10FBC000080290B2039AFFF7B6FB07EB080291B266
:10FBD000721990B2039AFFF7AEFB65E007EB0802DB
:10FBE00091B2721B90B2039AFFF7A5FB7A1991B2FA
:10FBF000A6EB080290B2039AFFF79DFB54E0A7EB37
:10FC0000080291B2721B90B2039AFFF794FB7A1B21
:10FC100091B2A6EB080290B2039AFFF78CFB43E087
:10FC2000A7EB080291B2721990B2039AFFF783FB17
:10FC30007A1B91B206EB080290B2039AFFF77BFBA6
:10FC40007A1991B206EB080290B2039AFFF773FBA0
:10FC500007EB080291B2721990B2039AFFF76BFB9F
:10FC600007EB080291B2721B90B2039AFFF763FB95
:10FC70007A1991B2A6EB080290B2039AFFF75BFBE8
:10FC8000A7EB080291B2721B90B200E00BE0039A5E
:10FC9000FFF751FB7A1B91B2A6EB080290B2039AD0
:10FCA000FFF749FB00E000BF00BF6D1CBBF1000F78
:10FCB00003DAA800801D834406E0A5EB080080005D
:10FCC0000A308344A8F1010845457FF74EAEBDE8F0
:10FCD000FF9F2DE9F84F0746884615461C46C34648
:10FCE0002046E31704EB5373DB1021464FEAE47C14
:10FCF00004EB5C7C4FEAEC0CA4EBCC0CBCF1000FE9
:10FD000002D04FF0010C01E04FF0000C634422469A
:10FD100004EBD27C4FEA6C0C03FB0CF3DBB20093D8
:10FD2000A5F12000C5B2002671E00C2C07D105EB2F
:10FD30004500C84901EB800010F8069030E0102C17
:10FD400005D1C54800EB051010F8069028E0182CE6
:10FD500007D105EBC500C14901EB800010F8069002
:10FD60001EE0242C09D1C5EB051000EB4000BC4976
:10FD700001EB400010F8069012E03C2C0ED13DB192
:10FD8000A5F10D00B74901EB002010F8069007E03F
:10FD9000B44800EB052010F8069001E0BDE8F88FAC
:10FDA0004FF0000A2DE009F0800028B141463846A6
:10FDB0000B9AFFF7C0FA06E00A9820B94146384688
:10FDC0000C9AFFF7B8FA4FEA49604FEA106908F158
:10FDD00001001FFA80F8A4480088B84200DCDDE783
:10FDE000A8EB0B00A04208D1D846781C87B29E48E9
:10FDF0000088B84200DCD1E706E00AF1010000F01B
:10FE0000FF0ABAF1080FCEDB00BF701CC6B2009823
:10FE100086428ADB00BFC1E710B50246012000E040
:10FE200050430B1EA1F10104E1B2F9D110BD01460E
:10FE300042F21072B1FBF2F20AB1052013E04FF466
:10FE40007A72B1FBF2F20AB104200CE06422B1FB39
:10FE5000F2F20AB1032006E00A22B1FBF2F20AB183
:10FE6000022000E0012070472DE9FF4F85B00646D3
:10FE700093461F46DDE91489129C0020049000255A
:10FE80004CE0781B401EC1B20A20FFF7C5FFBBFB48
:10FE9000F0F00A21B0FBF1F201FB120A049848BB12
:10FEA000781EA84226DDBAF1000F21D1139878B14F
:10FEB000002004EBD471491001FB05618DE80103BA
:10FEC000039488B2234620220699FFF702FF0EE032
:10FED000002004EBD471491001FB05618DE801039A
:10FEE000039488B2234630220699FFF7F2FE13E00E
:10FEF00001200490002004EBD471491001FB05613E
:10FF00008DE80103039488B20AF13001CAB2234696
:10FF10000699FFF7DEFE00BF681CC5B2BD42B0DB2C
:10FF200009B0BDE8F08F2DE9FF5F04460D4690460D
:10FF300099460EAE96E8C00CE0B2039008EB0400C0
:10FF40001FFA80F809EB05001FFA80F917E0444515
:10FF500002DB039CA81985B24D4500DB15E00020AB
:10FF60008DE8010C3A78334629462046FFF7B1FE6A
:10FF7000304606EBD07104EB61018CB27F1C3878FF
:10FF80007E2802DC38782028E1DA00BFBDE8FF9F38
:10FF90002DE9FC4105460F461646002413E00120DA
:10FFA0000021CDE9001004EB840105EB410188B28A
:10FFB0004CF2186302223946FFF7CAFC962004F07F
:10FFC00086F9601CC4B2B442E9DBBDE8FC812DE9CE
:10FFD000F84F07460C4690461D46A34608FB05F021
:10FFE000C11700EB5171C1F3CF01009100262BE046
:10FFF0000A9810F806904FF0000A1FE009F0800000
:020000040801F1
:1000000028B1214638460B9AFFF795F904E02146BE
:1000100038460C9AFFF78FF94FF6FF7000EA49094E
:10002000601C84B2A4EB0B00A84203D15C46781C90
:1000300087B206E00AF101001FFA80FABAF1080F50
:10004000DCDB00BF701C86B200988642D0DBBDE8C6
:10005000F88F00003AA40208AEA802089EAE02087B
:10006000FABB020860DD02082007002010B5044634
:100070002046FEF711FD10BD10B53820FEF770FDCB
:1000800010BD10B50020FEF76BFD10BD08B50121B5
:10009000282005F07AFA0121FB4805F08AF84FF490
:1000A0000060ADF8000010208DF8030003208DF8EB
:1000B00002006946F54804F0ABFF4FF40061F348D5
:1000C00005F053F8FEF70BFD0120F149086008BD6B
:1000D00010B50120EE490860FF20FFF7C7FF10BDF3
:1000E00010B5002400BFFF20FFF7C0FFFF2801D19B
:1000F000002010BD641C6FF07F408442F3D30120C8
:10010000F7E710B50020E2490860FFF7E9FF08B9FA
:10011000002010BDFFF7DCFF0120FAE770B50546AF
:100120004FF6FF7401E0601E84B2FF20FFF79EFFD0
:10013000A84201D0002CF6D10CB9FF2070BD0020E0
:10014000FCE770B504460D46FE20FFF7E7FF08B157
:10015000012070BD04E0FF20FEF79EFC2070641CAF
:10016000281EA5F101018DB2F5D1FF20FFF77EFF1A
:10017000FF20FFF77BFF0020EBE770B506460D463A
:10018000FFF7AEFF08B1012070BD2846FFF76EFFF4
:10019000FD2D19D0002404E0305DFEF77DFC601CCD
:1001A00084B2B4F5007FF7DBFF20FFF75FFFFF208D
:1001B000FFF75CFFFF20FFF759FF044604F01F0024
:1001C000052801D00220DFE70020DDE72DE9F0411E
:1001D00005460C4617464FF00008FFF779FFFFF77A
:1001E00090FF10B1FF20BDE8F08145F04000FFF71F
:1001F0003DFF200EFFF73AFFC4F30740FFF736FF3D
:10020000C4F30720FFF732FFE0B2FFF72FFF3846B5
:10021000FFF72CFF0C2D02D1FF20FFF727FF4FF037
:100220001F0800BFFF20FFF721FF064606F08000F1
:1002300030B1B8F10000A8F1010101F0FF08F1D1DF
:100240003046D0E770B50546012200210A20FFF7AD
:10025000BDFF044624B910212846FFF772FF04466B
:10026000FFF736FF0CB1012070BD0020FCE770B530
:100270000546012200210920FFF7A8FF044624B902
:1002800010212846FFF75DFF0446FFF721FF0CB160
:10029000012070BD0020FCE77FB56846FFF7E7FF4F
:1002A00010B1002004B070BD9DF8000000F0C00047
:1002B000402809D19DF809009DF8081000EB0120A5
:1002C000401C84B2A50220E09DF8050000F00F005C
:1002D0009DF80A1000EBD1109DF8091001F0030100
:1002E00000EB4100861C9DF8080080119DF8071066
:1002F00000EB81009DF8061001F0030100EB812066
:10030000441CA6F1090004FA00F52846CAE7F8B52E
:10031000FFF7BCFEFFF7B0FE002504E0FF20FFF76B
:10032000A5FE681C85B20A2DF8DB142600BF9522B5
:1003300000210846FFF74AFF0446012C04D0301E76
:10034000A6F101018EB2F2D1002052490870012CB1
:100350004AD187224FF4D5710820FFF737FF0128D3
:1003600047D1002506E0FF20FFF780FE0DF80500CD
:10037000681C85B2042DF6DB9DF80200012879D1B6
:100380009DF80300AA2875D14FF6FE7600BF012222
:1003900000213720FFF71AFF012291072920FFF7DC
:1003A00015FF044624B1301EA6F101018EB2EED134
:1003B000002E5FD0012200213A20FFF707FF00281E
:1003C00058D1002506E0FF20FFF750FE0DF805008C
:1003D000681C85B2042DF6DB9DF8000000F040009B
:1003E00018B106202B49087044E004202949087000
:1003F00040E0012200213720FFF7E8FE0122002122
:100400002920FFF7E3FE0446012C17DC02202149D6
:1004100008704FF6FE7600BF012200213720FFF75B
:10042000D5FE012200212920FFF7D0FE0446BCB1F1
:10043000301EA6F101018EB2EED111E00120154966
:1004400008704FF6FE7600BF012200211046FFF72C
:10045000BDFE044624B1301EA6F101018EB2F3D1D7
:100460002EB1012251021020FFF7B0FE10B1002082
:1004700008490870FFF72CFEFFF703FE05480078D7
:1004800050B10020F8BD0000000430000008014019
:10049000AC012142170000200CB12046F2E7AA204F
:1004A000F0E72DE9F04106460F4615463C48007836
:1004B000062800D07F02012D0CD1012239461120DF
:1004C000FFF784FE0446FCB969023046FFF739FEA7
:1004D000044619E0012239461220FFF777FE044650
:1004E00000BF4FF400713046FFF72BFE044606F5BF
:1004F0000076681EC0B2051E01D0002CF1D001228A
:1005000000210C20FFF762FEFFF7E2FD2046BDE868
:10051000F0812DE9F04106460F4615462048007847
:10052000062800D07F02012D0CD101223946182067
:10053000FFF74CFE04466CBBFE213046FFF71DFE64
:10054000044627E016480078012809D0012200213E
:100550003720FFF73BFE012229461720FFF736FE22
:10056000012239461920FFF731FE044694B900BF35
:10057000FC213046FFF701FE044606F50076681EB2
:10058000C0B2051E01D0002CF2D0FD210020FFF7E3
:10059000F4FD0446FFF79CFD2046BDE8F081000015
:1005A000170000202DE9F04186B04FF00008F0263A
:1005B00004200FF0ACF904461CB9012006B0BDE8D8
:1005C000F0814FF40A700FF0A2F9054625B92046D4
:1005D0000FF091F90120F1E700201F211823CDE948
:1005E0000130CDE90310FEA0C8222D210090642027
:1005F0000DF03BF90122FEA128460BF0D7F8074683
:100600009FB9D5E90201884201D1012000E0002014
:10061000012815D128460BF0BBFB28460FF06BF9DB
:1006200020460FF068F90120C8E728460BF0B0FB20
:1006300028460FF060F920460FF05DF90120BDE774
:100640002A46962120460CF00FFD00284CD00020B1
:100650004FF6FF711023CDE90130CDE90310EAA078
:10066000C8225021009064200DF0FFF800204FF6C2
:10067000FF711023CDE90130CDE90310E5A0C822B8
:1006800050210090DC200DF0F0F8E4A1204617F096
:100690007FFE804696224146012002F071FA46F024
:1006A000010600204FF4FC611023CDE90130CDE9B3
:1006B0000310DCA0C82250210090DC200DF0D5F8FA
:1006C00000204FF6FF711023CDE90130CDE9031072
:1006D000D6A0C8226421009008460DF0C6F8642117
:1006E000204617F03EFE0AE028460BF051FB284654
:1006F0000FF001F920460FF0FEF801205EE72A46D0
:10070000962120460CF0B0FC00283DD000204FF68A
:10071000FF711023CDE90130CDE90310BDA0C8223F
:1007200064210090DC200DF0A0F8C4A1204617F051
:100730002FFE804632224146972002F021FA46F0F1
:10074000020600204FF4FC611023CDE90130CDE911
:100750000310B4A0C82264210090DC200DF085F8BD
:1007600000204FF6FF711023CDE90130CDE90310D1
:10077000B5A0C8227821009064200DF076F864219D
:10078000204617F0EEFD0AE028460BF001FB284654
:100790000FF0B1F820460FF0AEF801200EE72A4620
:1007A000962120460CF060FC002841D000204FF636
:1007B000FF711023CDE90130CDE9031095A0C822C7
:1007C00078210090DC200DF050F8A3A1204617F00E
:1007D000DFFD80461E224146CA2002F0D1F946F0D4
:1007E00004063146002002F03BF900204FF4FC6182
:1007F0001023CDE90130CDE903108AA0C822782169
:100800000090DC200DF031F800204FF4FC61102343
:10081000CDE90130CDE9031091A0C8228C210090D0
:10082000A0200DF022F86421204617F09AFD0AE07E
:1008300028460BF0ADFA28460FF05DF820460FF081
:100840005AF80120BAE62A46962120460CF00CFC04
:1008500078B186A1204617F09BFD80461E224146B6
:100860004FF4857002F08CF96421204617F079FD71
:100870000AE028460BF08CFA28460FF03CF8204698
:100880000FF039F8012099E696222146012002F066
:1008900060F900204FF6FF711023CDE901304FF4CD
:1008A00096720094CDE90310B42150200CF0DDFFC6
:1008B00032222146972002F04CF900204FF6FF71BA
:1008C0001023CDE901304FF496720094CDE9031066
:1008D000CD2150200CF0C9FF1E222146CA2002F073
:1008E00038F900204FF6FF711023CDE901304FF4A5
:1008F00096720094CDE90310E62150200CF0B5FF6C
:100900001E2221464FF4857002F023F900204FF695
:10091000FF711023CDE901304FF496720094CDE9B8
:100920000310FF2150200CF0A0FF28460BF030FAF6
:1009300028460EF0E0FF20460EF0DDFF00BF3DE64A
:1009400070B5044600254B48008800F4004058B1BB
:10095000002048490988C1F30E01474A50542146F6
:10096000104617F015FD0546284670BD2DE9F041EB
:1009700005460C461646002700203E4908802946B9
:100980003EA018F05FFAB4B100BF0FE00A2003F0F8
:100990009EFC3848008800F4004038B12046FFF73C
:1009A000CFFF00B106E0002032490880701E80B2FF
:1009B000061EEBD100BF3846BDE8F08130B59DB0D2
:1009C000044604F03EF8002C7ED0012C6BD0022CA3
:1009D0007BD12C48B0F83B002A4B2C331A1F53E034
:1009E00057494649B2CECAFDBCD3D4D8D6D00000B0
:1009F000303A77696669636F6E66696766696C65C8
:100A00002E696E6900000000C5E4D6C35353494403
:100A10002D3E0000D0B4C8EBD6D00000255353497A
:100A200044000000D2D1C5E4D6C30000C5E4D6C35B
:100A3000555345524B45592D3E0000002555534511
:100A4000524B455900000000C5E4D6C35365727689
:100A5000657249502D3E00002553564E000000009F
:100A6000B2CECAFDC8E7CFC20000000025434954FA
:100A700059000000C8000020F409002025730D0A69
:100A80000000000018000020FAA1009004A818F04F
:100A9000E9F94FF4FA72FEA104A8FFF767FF0546D3
:100AA00028461DB030BDFBA002905820039003984B
:100AB0000090FCA2EFA104A8029B18F0D3F94FF418
:100AC000FA72F3A104A801E005E019E0FFF74EFF78
:100AD00005462846E5E7F4A00290502003900398CD
:100AE0000090F0A2E3A104A8029B18F0BBF94FF418
:100AF000FA72E7A104A8FFF739FF05462846D0E7B8
:100B000000BF00BF00BFCCE72DE9F04103F070FB50
:100B1000002001F079FF074607F00200022829D1E2
:100B200003F08FFF642003F0D2FB3222E3499720C9
:100B300002F00FF8E2A1E14817F02AFC10B90120F9
:100B4000BDE8F081E0A1DD4817F022FC8046DCA181
:100B5000DA4817F01DFC0930A8EB0000C6B2D8A196
:100B6000D64817F015FC00F1090432462146D74853
:100B700017F0DEFB07F0040004285FD103F061FFEB
:100B8000642003F0A4FB1E22CC49CA2001F0E1FF3F
:100B900003F030FBAFF24011C84817F0F9FB18B969
:100BA00003F04FFF0220CBE7C9A1C44817F0F0FBC8
:100BB0008046AFF25C11C14817F0EAFB401DA8EB7C
:100BC0000000C6B2AFF27011BC4817F0E1FB441D43
:100BD000002505E014F8011BBE484155681CC5B24C
:100BE000B542F7DBB8A1B54817F0D2FB8046B8A1F3
:100BF000B24817F0CDFB801CA8EB0000C6B2B4A130
:100C0000AE4817F0C5FB841C207830384FF47A7159
:100C100048436178303901EBC10202EB011100EB6E
:100C20008101A078303800EB800001EB4001E078D2
:100C300030380844A7492C39A1F83B0000207FE751
:100C400070B5044603F0FDFE012C07D14FF4FA7293
:100C50008FA1A1A0FFF78AFE054607E034B94FF443
:100C6000FA728BA1A0A0FFF781FE0546284670BD51
:100C700010B59AB003F0E5FE96482C3890F83D2068
:100C80009DA101A818F0EEF84FF4FA7280A101A816
:100C9000FFF76CFE044620461AB010BD10B500BF29
:100CA0009A48008800F040000028F9D02B2097498E
:100CB000091D088000BF9548008800F0400000280A
:100CC000F9D02B209149091D088000BF8F4800886A
:100CD00000F040000028F9D02B208C49091D088025
:100CE0004FF4FA7003F0F3FA322269A188A0FFF7FB
:100CF0003DFE10BD2DE9FF5F074628200EF007FEE0
:100D0000804628200EF003FE814628200EF0FFFDCD
:100D1000039028200EF0FBFD824628200EF0F7FD00
:100D2000054628200EF0F3FD04464FF47A700EF0CD
:100D3000EEFD029032200EF0EAFD834632200EF0E6
:100D4000E6FD06464FF47A71029817F00AFB32214D
:100D5000304617F006FB3221584617F002FB0FB958
:100D6000BDE8FF9F38460DF077FE8046B8F1000FD2
:100D700071D068A140460EF06BFA8146B9F1000FC0
:100D800069D0002148460EF05AFA039003980EF0FD
:100D900028FA029002980DF05FFE8246BAF1000F29
:100DA00056D05EA150460EF053FA0546ADB15EA195
:100DB00028460EF04DFA04467CB1D4F810B05846DF
:100DC00017F002FB01AB32460146009058460CF08A
:100DD0000BFC3146564817F0FEFA3221584617F000
:100DE000C0FA3221304617F0BCFA52A150460EF03C
:100DF0002FFA0546002D2BD04FA128460EF028FAD9
:100E0000044684B1D4F810B0584617F0DDFA01ABAF
:100E100032460146009058460CF0E6FB3146444805
:100E20000A3017F0D8FA46A128460EF011FA044607
:100E300004B1266944A128460EF00AFA04463CB1E2
:100E4000266930460CF029FC40B23949C91F887127
:100E500050460DF009F840460DF006F840460EF0F9
:100E60004AFD48460EF047FD03980EF044FD5046FB
:100E700070E0000041542B43495053544152543DBB
:100E8000222573222C222573222C25640D0A0000B2
:100E90004F4B00006170692E6B3738302E636F6DD9
:100EA00000000000544350006170692E73656E6944
:100EB00076657273652E636F6D000000F409002083
:100EC0002555534552000000262300002E07002020
:100ED000262500004400002041542B4349504D4F2B
:100EE00044453D310000000041542B4349504D4FD3
:100EF00044453D300000000041542B434950434CD1
:100F00004F53453D25640D0A0000000000380140A4
:100F100041540000726573756C7473006C6F63618B
:100F200074696F6E000000006E616D650000000066
:100F3000710700206E6F7700746578740000000000
:100F4000636F64650000000074656D7065726174A4
:100F5000757265000EF0CFFC28460EF0CCFC2046E2
:100F60000EF0C9FC02980EF0C6FC58460EF0C3FC09
:100F700030460EF0C0FC00BFF2E62DE9F041064617
:100F80000D461446002703F05CFD3146AFF21450C5
:100F900017F058FFC5B1BCB10FE00A2003F097F974
:100FA000FB48008800F4004038B12846FFF7C8FC31
:100FB00000B106E00020F6490880601E80B2041EE1
:100FC000EBD100BF04B901273846BDE8F0812DE917
:100FD000F043B9B005460E464FF0000803F031FD6E
:100FE000002707E00020FFF7E9FC00B904E000BF9C
:100FF000781CC7B2022FF5DB00BF1E2207A94FF4F1
:10100000857001F0A6FDAFF29C5107A817F0C0F95A
:1010100000F10608AFF2501107A817F0B9F98146A0
:10102000AFF2B85107A817F0B3F9801DA9EB000083
:10103000C4B2002005E018F8001002AA1154411CA7
:10104000C8B2A042F7DB002002A90855C822AFF2BF
:10105000C011D0A0FFF78AFC18B1012039B0BDE85B
:10106000F08302A833462A46CD49009007A817F01E
:10107000F9FEC822AFF2D81107A8FFF77EFF20B90A
:10108000C848FFF737FE0020E8E70120E6E77CB517
:101090000446E0783038A178303901EB810100EB6B
:1010A0004100C1490870A07930386179303901EBCD
:1010B000810100EB4100BC494870607A3038217AE8
:1010C000303901EB810100EB4100B7498870207B8A
:1010D0003038E17A303901EB810100EB4100B2494F
:1010E0000871E07B3038A17B303901EB810100EBE6
:1010F0004100AD494871A07C3038617C303901EB4A
:10110000810100EB4100A84988710846807949793E
:10111000A54DCDE900102B79AA786978287801F0DF
:101120006CFE7CBD2DE9F84F054628200EF0EFFB44
:10113000064628200EF0EBFB074628200EF0E7FBC2
:10114000044632200EF0E3FB804632200EF0DFFB37
:1011500081463221484617F004F93221404617F003
:1011600000F90DB9BDE8F88F28460DF075FC06466C
:10117000002E35D08DA130460EF06AF80746002FBC
:101180002ED08CA138460EF063F8044674B1D4F822
:101190001080404617F018F982466B464A46514681
:1011A00040460CF021FA4846FFF771FF32214846CD
:1011B00017F0D7F882A138460EF04AF804467CB101
:1011C000D4F81080404617F0FFF882466B464A4636
:1011D000514640460CF008FA49467B4817F0FBF8A8
:1011E00030460EF088FB38460EF085FB20460EF0A8
:1011F00082FB40460EF07FFB48460EF07CFB00BFB2
:10120000B0E710B5B2B003F01CFC002407E00120E9
:10121000FFF7D4FB00B904E000BF601CC4B2022C8D
:10122000F5DB00BFC822AFF298315AA0FFF79EFB52
:1012300010B1012032B010BD6449684617F012FEAB
:10124000C822AFF2A4316846FFF797FE20B955488F
:10125000FFF768FF0020EDE70120EBE710B59AB03B
:1012600003F0EFFB5A4BA3F114025AA101A817F0A7
:10127000F9FD4FF4FA72AFF2E83101A8FFF776FBFF
:10128000044614B101201AB010BD03F0DAFB4FF48C
:10129000FA72AFF204413FA0FFF768FB04460CB1BD
:1012A0000120F0E72046EEE72DE9F05F0027B84681
:1012B000C8200EF02CFB054615B90120BDE8F09FB3
:1012C000002001F0A1FB064606F0010058B1002005
:1012D00046490870642002F0FAFF96222946012050
:1012E00001F037FC01E00120E8E7AFF6D001284625
:1012F00017F04EF808B90120E0E7AFF6E001284604
:1013000017F046F8871DAFF23841284617F040F82D
:1013100000F10208AFF24841284617F039F8834639
:10132000AFF60811284617F033F8801DABEB00002C
:1013300000F0FF09AFF27041284617F029F8834604
:10134000AFF27441284617F023F8801CABEB000085
:1013500000F0FF0A17F8060C252849D1002406E002
:1013600038781B49143908557F1C601CC4B24C45A1
:10137000F6DB002407E098F800101548015508F145
:101380000108601CC4B25445F5DB002096E700005C
:10139000C800002041542B43495053454E4400009F
:1013A0007C9B0308F4090020A0000020726573757F
:1013B0006C7400006461746574696D655F31000070
:1013C0007765656B5F3300006A070020109B030898
:1013D0002C00002041542B43574A41503D22257395
:1013E000222C222573220D0A000000005900002043
:1013F000012063E770B5044603F023FB44B14FF4CA
:10140000FA72AFF27451F9A0FFF7B0FA054607E09F
:101410004FF4FA72AFF28851F7A0FFF7A7FA05462A
:10142000284670BD10B503F00CFB4FF4FA72AFF212
:10143000A051F4A0FFF79AFA0446204610BD2DE90A
:10144000F04186B000270026F048007805280DD12D
:10145000EF48007850B14DF2FA504FF48C734FF4CE
:10146000D77241210090FA20FEF77EF90821E94861
:1014700003F061FE88B90821E64803F05CFE60B91C
:101480004FF4FA6002F023FF0821E24803F053FE14
:1014900018B9012006B0BDE8F081DC4800780528C5
:1014A0000DD1DB48007850B14DF2FA504FF48C73F7
:1014B0004FF4D77241210090FA20FEF755F9FFF75B
:1014C000B1FFD8B9D1480078052812D1D0480078AA
:1014D00078B14DF2FA5000211023CDE90131CDE968
:1014E0000310CDA0C822462100904FF482700CF06A
:1014F000BCF90120CC4981F83E0021E0C3480078C6
:10150000052817D1C2480078A0B14DF2FA504FF427
:10151000784100221023CDE90132CDE90310C3A0A8
:10152000C822462100904FF482700CF09EF90320EF
:10153000C24908700020BC4981F83E000120A9E79B
:101540004FF4FA6002F0C3FE4FF47A7002F0BFFE6F
:101550000120FFF74FFFB8B9AC480078052831D11A
:10156000AB48007870B34DF2FA5000211023CDE95A
:101570000131CDE90310B2A0C8225A2100904FF4E6
:1015800082700CF072F91DE0A0480078052817D190
:101590009F480078A0B14DF2FA504FF478410022F4
:1015A0001023CDE90132CDE90310AAA0C8225A21A7
:1015B00000904FF482700CF058F903209F49087096
:1015C000012067E74FF4FA6002F081FE8F4800784F
:1015D000052812D18E48007878B14DF2FA500021DA
:1015E0001023CDE90131CDE903109FA0C822962137
:1015F00000904FF482700CF038F99DE0701CC6B278
:10160000FFF752FEC8B9C7B90127804800780528FE
:101610002AD17F48007838B34DF2FA5000211023C8
:10162000CDE90131CDE9031093A0C82296210090A5
:101630004FF482700CF019F916E074480078052810
:1016400012D17348007878B14DF2FA50002110237E
:10165000CDE90131CDE903108BA0C822962100907D
:101660004FF482700CF001F9012F65D167480078C2
:10167000052812D16648007878B14DF2FA50002161
:101680001023CDE90131CDE9031082A0C822AA219F
:1016900000904FF482700CF0E8F8FFF7DFFD68BBB4
:1016A0000120614981F83F0058480078052812D18F
:1016B0005748007878B14DF2FA5000211023CDE957
:1016C0000131CDE9031077A0C822AA2100904FF480
:1016D00082700CF0CAF800240DE07648006808B962
:1016E000012000E00020734908604FF4FA7002F016
:1016F000EEFD601CC4B2022CEFDB20E000270020CE
:10170000494981F83F0041480078052814D14048F4
:10171000007888B14DF2FA504FF47841002210233E
:10172000CDE90132CDE9031063A0C822AA210090BF
:101730004FF482700CF099F8022EFFF65FAF00BFF5
:10174000032E18DB31480078052814D13048007882
:1017500088B14DF2FA504FF4784100221023CDE9C0
:101760000132CDE9031054A0C822AA2100904FF401
:1017700082700CF07AF80120FFF762FAB8B92348BA
:101780000078052831D12248007870B34DF2FA5024
:1017900000211023CDE90131CDE903104AA0C82270
:1017A000BE2100904FF482700CF05FF89CE0174867
:1017B0000078052817D116480078A0B14DF2FA50EC
:1017C0004FF4784100221023CDE90132CDE9031016
:1017D00041A0C822BE2100904FF482700CF045F861
:1017E000032016490870012054E67DE041542B4344
:1017F000574D4F44453D310041542B43574D4F44C5
:10180000453D330041542B5253540000DC05002069
:10181000DE0500200010014057494649D6D8C6F4DD
:10182000B3C9B9A62E000000180000205749464948
:10183000D6D8C6F4CAA7B0DC2E00000015000020E0
:10184000544350C4A3CABDC9E8D6C3B3C9B9A62E70
:1018500000000000544350C4A3CABDC9E8D6C3CA9F
:10186000A7B0DC2E0000000057494649C9E8D6C39E
:10187000D6D02E2E2E00000057494649C9E8D6C3BF
:10188000B3C9B9A600000000D6D8D0C2C9E8D6C3F3
:10189000D6D02E0057494649C1ACBDD3D6D02E2E46
:1018A0002E00000057494649C1ACBDD3B3C9B9A603
:1018B000000000009001224257494649C1ACBDD307
:1018C000CAA7B0DC00000000C9E8D6C3CDB8B4ABED
:1018D000B3C9B9A600000000C9E8D6C3CDB8B4ABFF
:1018E000CAA7B0DC00000000FD48007890BBFD48AE
:1018F0000078042845D0FFF7D1F90120FFF7A0F9BF
:101900004FF000080EE0FFF77CFC18B90120F64903
:1019100008700AE00020F449087000BF08F10100D7
:1019200000F0FF08B8F1020FEDDB00BFFFF7B6F9DA
:10193000FFF79EF90120FFF783F94FF0000812E04E
:10194000EAA1AFF69C20FFF742FB20B90120EC4949
:1019500008700BE015E00020E949087000BF08F1AD
:10196000010000F0FF08B8F1020FE9DB00BFFFF74C
:1019700095F9FFF77DF90120FFF762F90120D849B9
:101980000870D8480078052812D1DE48007878B170
:101990004DF2FA5000211023CDE90131CDE90310B9
:1019A000D9A0C822D22100904FF482700BF05DFFC5
:1019B000FFF7AAF80546EDBB0220FEF7FFFFB8B916
:1019C000C848007805284FD1CE48007898B34DF22A
:1019D000FA5000211023CDE90131CDE90310CEA04A
:1019E000C822D22100904FF482700BF03EFF3BE002
:1019F000BC480078052817D1C2480078A0B14DF244
:101A0000FA504FF4784100221023CDE90132CDE99C
:101A10000310C5A0C822D22100904FF482700BF0B1
:101A200024FF0320C44908704FF4FA7002F04FFC01
:101A300001202FE500E017E0AA480078052813D11F
:101A4000B048007880B14DF2FA504FF4784100224E
:101A50001023CDE90132CDE90310B8A0C8221E2120
:101A600000903C200BF001FFB849022003F09CF9E4
:101A700040B19C480078052802D10320AE49087087
:101A8000012007E50120B249087002F0DAFF95480D
:101A90000078052802D10320A749087000BFF9E4A7
:101AA00010B5FFF7DBFB20B90120AA4981F83F0000
:101AB00003E00020A74981F83F0010BD70B5002564
:101AC000002402F0BEFF4FF4FA72AFF63C41A2A030
:101AD000FEF74CFF04464CB9A3A1A54816F058FCEC
:101AE000C51D28783038C4B2204670BD00BFA1485B
:101AF000008800F040000028F9D02B209D49091DE6
:101B0000088000BF9B48008800F040000028F9D002
:101B10002B209849091D088000BF9648008800F0D6
:101B200040000028F9D02B209249091D088004208C
:101B3000DBE710B502F085FF4FF4FA72AFF6B04163
:101B40008DA0FEF713FF0446204610BD10B502F02D
:101B500078FF4FF4FA72AFF6C8418AA0FEF706FF8D
:101B60000446204610BD10B502F06BFF4FF4FA7228
:101B7000AFF6E44186A0FEF7F9FE0446204610BD0C
:101B800010B502F05EFF4FF4FA72AFF6FC4183A08D
:101B9000FEF7ECFE0446204610BD70B5054602F087
:101BA00050FF4FF4FA72AFF618517FA0FEF7DEFE39
:101BB0000446204670BD10B502F043FF4FF4FA72A0
:101BC000AFF634516FA0FEF7D1FE0446204610BD9B
:101BD00010B57A48008800F4004060B100207749D1
:101BE000088077A1624816F0D3FB08B1002010BD31
:101BF00002F027FF01E00120F9E700BFF7E710B589
:101C000002F01FFF4FF4FA72AFF67C51AFF6285086
:101C1000FEF7ACFE0446204610BD70B505462846CA
:101C200016F0D2FBC6B2002403E000202855601C49
:101C3000C4B2B442F9DB70BD30B585B0002462A5F2
:101C40000020FDF734FD0120FFF7D4FB80B9002010
:101C50004FF4FC611023CDE90130CDE903105CA005
:101C6000C8225A2100904FF482700BF0FEFD11E063
:101C700000204FF478411023CDE90130CDE9031065
:101C800057A0C8225A2100904FF482700BF0EDFD4E
:101C900005B030BDFFF7C6FB80B900204FF4FC61F2
:101CA0001023CDE90130CDE9031051A0C8226E21E7
:101CB00000904FF482700BF0D8FDA9E000204FF4A3
:101CC00078411023CDE90130CDE903104CA0C822A2
:101CD0006E2100904FF482700BF0C7FDD8E7000032
:101CE0005B000020DC0500205D0000207835796471
:101CF0003673706F707375726175746500000000E3
:101D00005C000020DE050020B7FECEF1C6F7C1ACB6
:101D1000BDD3D6D02E2E2E00B7FECEF1C6F7C1AC65
:101D2000BDD3B3C9B9A60000B7FECEF1C6F7C1ACAA
:101D3000BDD3CAA7B0DC000015000020B2CECAFD9A
:101D4000B6C1C8A1B4EDCEF3202000002E070020BC
:101D50005A0000201800002041542B43495053548E
:101D600041545553000000005354415455533A0018
:101D7000F40900200038014041542B43574C415096
:101D80000000000041542B4349465352000000001C
:101D900041542B4349504D55583D310041542B433C
:101DA00049504D55583D300041542B4349505345FF
:101DB000525645523D312C3333330000C8000020C9
:101DC0002B495044000000004150495000000000E1
:101DD0004150C4A3CABDC9E8D6C3B3C9B9A600005F
:101DE0004150C4A3CABDC9E8D6C3CAA7B0DC00002D
:101DF00057494649D6D8C6F4B3C9B9A60000000071
:101E000057494649D6D8C6F4CAA7B0DC000000003E
:101E100040F6B83002F05BFAFFF7F1FE80B900201F
:101E20004FF4FC611023CDE90130CDE90310A7A0E8
:101E3000C8226E2100904FF482700BF016FD0FE067
:101E400000204FF4FC611023CDE90130CDE90310EF
:101E5000A2A0C8226E2100904FF482700BF005FD05
:101E6000FFF781FE80B900204FF4FC611023CDE91B
:101E70000130CDE903109DA0C8226E2100904FF4DF
:101E800082700BF0F2FC10E000204FF47841102338
:101E9000CDE90130CDE9031098A0C8226E21009051
:101EA0004FF482700BF0E1FCF2E64FF47A7002F02E
:101EB0000EFA41F69070FFF770FE78B900204FF4EB
:101EC000FC611023CDE90130CDE903108FA0C822B9
:101ED0008221009048000BF0C8FC0FE000204FF476
:101EE00078411023CDE90130CDE903108CA0C82240
:101EF0008221009048000BF0B8FCC9E64FF47A70DC
:101F000002F0E5F9FFF757FE00B1C1E6294689481E
:101F100016F03EFA841D7CB100204FF4FC611023C2
:101F2000CDE90130C8220094CDE9031096214FF489
:101F3000A2700BF09AFC0FE000204FF4FC6110231C
:101F4000CDE90130CDE903107BA0C8229621009095
:101F50004FF4A2700BF089FC00204FF4FC611023B9
:101F6000CDE90130CDE9031075A0642296210090DF
:101F70004FF482700BF079FC00204FF4FC611023C9
:101F8000CDE90130CDE903106FA0C822AA2100904D
:101F90004FF482700BF069FC00BF79E67FB5002634
:101FA0006CA1644816F0F4F968B100204FF4FC61AC
:101FB0006AA21023CDE90032CDE90210C822BE2169
:101FC0008020FDF7B0FF67A15A4816F0E1F968B12B
:101FD00000204FF4FC6165A21023CDE90032CDE969
:101FE0000210C822BE218020FDF79DFF61A151484B
:101FF00016F0CEF968B100204FF4FC615FA2102307
:10200000CDE90032CDE90210C822BE218020FDF7C3
:102010008AFF5CA1474816F0BBF968B100204FF475
:10202000FC615AA21023CDE90032CDE90210C8228A
:10203000BE218020FDF777FF56A13E4816F0A8F993
:10204000E8B154A13B4816F0A3F9441D00250EE069
:102050002078262808D0207806EB860100EB410086
:10206000303886B2641C00E007E0681CC5B2204628
:1020700016F0AAF9801FA842EAD800BF002647A19F
:102080002C4816F085F9E8B144A12A4816F080F9E9
:10209000441D00250EE02078262808D0207806EB85
:1020A000860100EB4100303886B2641C00E007E096
:1020B000681CC5B2204616F087F9801FA842EAD8EE
:1020C00000BF002602F0BDFC7FBD0000B7C7CDB841
:1020D000B4ABC9E8D6C3B3C9B9A60000B7C7CDB879
:1020E000B4ABC9E8D6C3CAA7B0DC0000B6E0C1AC47
:1020F000BDD3B4F2BFAAB3C9B9A60000B6E0C1AC63
:10210000BDD3B4F2BFAACAA7B0DC0000B1BEB5D837
:10211000B7FECEF1C6F7BFAAC6F4B3C9B9A6000090
:10212000B1BEB5D8B7FECEF1C6F7BFAAC6F4CAA7EE
:10213000B0DC2E00F4090020CEDED0C5CFA2000016
:10214000B1BEB5D849503A00B6CBBFDA3A333333D3
:102150002E00000053314F4E000000005331204F3D
:102160004E00000053314F46460000005331204FCF
:102170004646000053324F4E000000005332204FBD
:102180004E00000053324F46460000005332204FAD
:102190004646000056616C313D00000056616C32CD
:1021A0003D00000008B50121102003F0EEF90320E6
:1021B000ADF8000010208DF8030003208DF8020018
:1021C0006946904802F024FF03218E4802F0CDFFBB
:1021D00001208D4908608D49C1F8840108BD10B502
:1021E0008848006820F0F0008649086008460068CA
:1021F00040F03000086001208349091D08608349D0
:10220000C1F88001042002F037F800207E49091D42
:102210000860042002F030F800207C49C1F88001F9
:1022200010BD10B57748006820F0F00075490860CF
:102230000846006840F030000860002072490860DD
:102240007249C1F88401042002F016F801206E4999
:1022500008606E49C1F88401042002F00DF810BD39
:1022600010B500246748006820F0F0006549086058
:102270000846006840F08000086001206249091D9E
:10228000086001F0F9FF01206049C1F8800101F008
:10229000F3FF07E0601CC4B2FA2C03DDFFF7C1FFB7
:1022A000012010BD58487C3800680028F2D15649FA
:1022B000086000BFF5E710B5002053490860514899
:1022C000006820F0F0004F4908600846006840F0C0
:1022D0003000086000204D49C1F88401022001F05F
:1022E000CBFF012048490860022001F0C5FF002013
:1022F0004649C1F8800110BD10B500204249086070
:102300004048006820F0F0003E4908600846006838
:1023100040F03000086001203C49C1F884010220EF
:1023200001F0AAFF012038490860022001F0A4FF53
:1023300000203649C1F8800110BD70B5044631480F
:10234000006820F0F0002F4908600846006840F05F
:102350003000086000202C49086000251EE0E009DC
:1023600020B101202849091D086003E0002026490A
:10237000091D08606006040E022001F07DFF0120A7
:1023800021490860022001F077FF00201F49C1F8B1
:102390008001022001F070FF681CC5B2082DDEDB51
:1023A00070BD70B5054600241648006820F0F000A6
:1023B000144908600846006840F080000860002664
:1023C00016E0002010490860022001F055FF0120AE
:1023D0000E49C1F880016006040E0B487C38006885
:1023E00008B1601CC4B2012001F046FF701CC6B2E7
:1023F000082EE6DB15B9FFF77FFF01E0FFF75BFF73
:10240000204670BD0010014080012242000022429F
:102410002DE9F0410746FFF7E2FEEE20FFF78DFFC2
:10242000FFF71EFF10B10120BDE8F0813846FFF72D
:1024300084FFFFF715FF08B10120F5E7FFF7CFFE96
:10244000EF20FFF77AFFFFF70BFF08B10120EBE762
:102450000120FFF7A6FF04460020FFF7A2FF054674
:10246000FFF7DFFE26022E433046DDE710B5FFF70B
:10247000B6FEEE20FFF761FFFFF7F2FE08B1012084
:1024800010BDF420FFF759FFFFF7EAFE08B1012065
:10249000F6E73420FFF751FFFFF7E2FE08B1012015
:1024A000EEE7FFF7BEFE052001F011FFF620FFF773
:1024B000AFFFE5E710B5FFF792FEEE20FFF73DFF17
:1024C000FFF7CEFE08B1012010BDF420FFF735FF65
:1024D000FFF7C6FE08B10120F6E72E20FFF72DFF1B
:1024E000FFF7BEFE08B10120EEE7FFF79AFE0520D8
:1024F00001F0EDFEF620FFF78BFFE5E72DE9FE4F3B
:10250000FFF7D8FF8346BBF1010F02D10120BDE8E0
:10251000FE8FFFF7ABFF8046B8F1010F01D101201C
:10252000F5E762484089ABEB000060490989484300
:10253000C40B5E48B0F91200C0025C49B1F9141036
:102540002144B0FBF1F00298A0F57A675748B0F942
:102550000E0007FB07F14843C40D5448B0F90200D0
:102560007843C60AA01901905048B0F900000199BB
:1025700001EB8000801C800800904C48B0F90400FA
:102580007843440B4948B0F90C0007FB07F1090BED
:102590004843060CA019801C800801904348C1885C
:1025A000019800F5004041434FEAD13A0098A8EB6A
:1025B00000004CF2503100FB01F9B9F1004F04D298
:1025C0004FEA4900B0FBFAF502E0B9FBFAF045002A
:1025D000280A00FB00F440F6DE306043040C344867
:1025E0006843060CA01900F6CF6005EB101030B957
:1025F0003048007820F010002E49087006E02D4881
:10260000007820F0100010302A490870A01900F658
:10261000CF6005EB10107AE710B5AA20FFF7F8FE9F
:1026200000B222490880AC20FFF7F2FE00B21F4939
:102630004880AE20FFF7ECFE00B21C498880B02035
:10264000FFF7E6FE1949C880B220FFF7E1FE1749FF
:102650000881B420FFF7DCFE14494881B620FFF75B
:10266000D7FE00B211498881B820FFF7D1FE00B231
:102670000E49C881BA20FFF7CBFE00B20B49088291
:10268000BC20FFF7C5FE00B208494882BE20FFF714
:10269000BFFE00B205498882642001F018FEFFF7F2
:1026A0002DFF08B9012010BD0020FCE784070020A1
:1026B00043E3FFFFA005002010B500240020CE4911
:1026C00008609020FCF7E8F90020FCF7E5F900200D
:1026D000FCF7E2F90020FCF7DFF9FF20FCF7DCF95A
:1026E00044EA0024FF20FCF7D7F904430120C34942
:1026F000C1F89001204610BD08B51020ADF80000CB
:102700008DF8030003208DF802006946BC4802F0F2
:102710007FFC1021BA4802F028FDFCF7E0F9082000
:10272000FCF71EFAFFF7C8FFB649088008BD10B5D0
:1027300000240020B04908600520FCF7ADF9FF2017
:10274000FCF7AAF904460120AC49C1F890012046E3
:1027500010BD10B504460020A74908600120FCF711
:102760009BF92046FCF798F90120A449C1F8900193
:1027700010BD10B50020A04908600620FCF78CF9B8
:1027800001209E49C1F8900110BD10B500209A4962
:1027900008600420FCF780F901209849C1F89001F5
:1027A00010BD2DE9F04106460C461746002092491F
:1027B00008600320FCF770F9C4F30740FCF76CF9DC
:1027C000C4F30720FCF768F9E0B2FCF765F90025CF
:1027D00005E0FF20FCF760F97055681C85B2BD422A
:1027E000F7DB012084490860BDE8F08110B500BF27
:1027F000FFF79DFF00F001000028F9D110BD2DE981
:10280000F04106460C461746FFF7B3FF00207A4911
:1028100008600220FCF740F9C4F30740FCF73CF9DC
:10282000C4F30720FCF738F9E0B2FCF735F90025CE
:1028300004E0705DFCF730F9681C85B2BD42F8DB3E
:1028400001206D490860FFF7D1FFBDE8F0812DE957
:10285000F04107460E461446F0B2C0F58075AC4212
:1028600000DC254612E02A4631463846FFF7C7FF0E
:10287000AC4200D10BE02F442E44601B84B2B4F56F
:10288000807F02DD4FF4807500E02546EBE700BF56
:10289000BDE8F08110B504462403FFF76AFFFFF797
:1028A000A5FF0020544908602020FCF7F5F8C4F388
:1028B0000740FCF7F1F8C4F30720FCF7EDF8E0B2AD
:1028C000FCF7EAF801204D49C1F89001FFF78EFFAF
:1028D00010BD2DE9F05F8346884616464FF48050C0
:1028E0000DF015F88246BAF1000F01D1BDE8F09F56
:1028F0004FEA1837C8F30B09C9F58054A64200DC2B
:10290000344641E039034FF480525046FFF749FF07
:10291000002508E009EB05001AF80000FF2800D0A8
:1029200003E0681C85B2A542F4DB00BFA54215DABE
:102930003846FFF7AFFF002507E01BF8050005EB61
:1029400009010AF80100681C85B2A542F5DB3903CC
:102950004FF480525046FFF77AFF04E0224641468A
:102960005846FFF774FFA64200D10EE07F1C4FF0DF
:102970000009A344A044301B86B2B6F5805F02DD97
:102980004FF4805400E03446BCE700BF50460CF0E2
:10299000B2FF00BFAAE710B5FFF7EBFEFFF726FF77
:1029A000002015490860C720FCF776F8012013497C
:1029B000C1F89001FFF71AFF10BD10B500200E49B5
:1029C0000860B920FCF768F801200C49C1F89001B3
:1029D000032001F051FC10BD10B50020064908602D
:1029E000AB20FCF759F801200449C1F890010320FD
:1029F00001F042FC10BD0000900121420000214284
:102A0000000801405E00002070B504460026FFF774
:102A1000E6FB2546E11704EB11610912A02202EB47
:102A20004101C8B2FFF789FCFFF71AFCE11704EB7C
:102A300011610912A4EB0121C8B2FFF77EFCFFF778
:102A40000FFCFFF7CCFBA120FFF777FCFFF708FC9A
:102A50000020FFF7A6FC0646FFF7E3FB304670BDFB
:102A600070B504460E46FFF7BAFB2546E11704EBA6
:102A700011610912A02202EB4101C8B2FFF75DFC0F
:102A8000FFF7EEFBE11704EB11610912A4EB012142
:102A9000C8B2FFF752FCFFF7E3FB3046FFF74DFCEF
:102AA000FFF7DEFBFFF7BDFB0A2001F010FC70BD55
:102AB00010B540F2FF30FFF7A7FF0446A52C01D167
:102AC000002010BDA52140F2FF30FFF7C9FF40F202
:102AD000FF30FFF799FF0446A52C01D10020F0E755
:102AE0000120EEE710B5FFF7E3FF08B9002010BDA5
:102AF0000120FCE72DE9F04105460E46174600246B
:102B000009E0E20026FA02F2D1B22A1990B2FFF7E8
:102B1000A7FF601CC4B2BC42F3DBBDE8F0812DE925
:102B2000F04107460C46002600250DE03602391913
:102B3000491B491E88B2FFF767FF06444FF4FA703D
:102B400001F09AFB681CC5B2A542EFDB3046BDE838
:102B5000F0812DE9F04105460C46164600270BE0B2
:102B600028466A1C95B2FFF74FFF04F8010B0120BD
:102B700001F0ADFB781C87B2B742F1DBBDE8F08114
:102B80002DE9F04105460C461646002708E021785D
:102B90002846FFF765FF681C85B2641C781C87B265
:102BA000B742F4DBBDE8F0811FB5104815F00CFC0E
:102BB00084B222460D490020FFF7E2FF0B4815F0D2
:102BC00003FC84B222460A490020FFF7C2FF00201E
:102BD0004FF4FC61064A1023CDE90032CDE9021022
:102BE0004FF4A0729621FDF79EF91FBD60000020F2
:102BF0009A07002010B5FFF7D5FAFFF7F0FA642026
:102C0000FFF79BFBFFF70DFBE020FFF796FBFFF7BD
:102C100008FB642001F05BFB2020FFF78EFBFFF731
:102C200000FB10BD2DE9F04107460D4614464FF05C
:102C30000008FFF7D4FA6420FFF77FFBFFF710FBD3
:102C400080463846FFF779FBFFF70AFB80460026EF
:102C500008E014F8010BFFF770FBFFF701FB80465B
:102C6000701CC6B2AE42F4DBFFF7DBFA4046BDE8AB
:102C7000F0812DE9F04107460D461446FFF7AFFA03
:102C80006420FFF75AFB3846FFF757FBFFF7A7FA18
:102C90006520FFF752FBFFF7E3FA8046002606E0C7
:102CA0000120FFF77EFB04F8010B701CC6B2681E02
:102CB000B042F5DC0020FFF774FB2070FFF7B1FA9B
:102CC0004046BDE8F081014601F00F000A1102EB19
:102CD000820200EB4200704701460A2091FBF0F2AD
:102CE00000FB12100A2291FBF2F200EB0210C0B2BC
:102CF000704701460A46C81701EB90708010A1EB9F
:102D0000800028B9642091FBF0F300FB131030B968
:102D10004FF4C87091FBF0F300FB131008B90120C9
:102D200070470020FCE77CB504466A460721002076
:102D3000FFF79FFF05460DB128467CBD9DF80010AA
:102D400001F07F00FFF7BFFFA0719DF8011001F0B7
:102D50007F00FFF7B8FF60719DF8021001F03F009F
:102D6000FFF7B1FF20719DF80300E0709DF804109B
:102D700001F03F00FFF7A7FFA0709DF8051001F0DC
:102D80001F00FFF7A0FF60709DF80600FFF79BFF94
:102D900020700020D1E71CB50446A079FFF79CFF06
:102DA0008DF800006079FFF797FF8DF8010020791A
:102DB000FFF792FF8DF80200E078FFF78DFF8DF8A6
:102DC0000300A078FFF788FF8DF804006078FFF714
:102DD00083FF8DF805002078642190FBF1F201FB60
:102DE0001200C3B21846FFF777FF8DF806006A4657
:102DF00007210020FFF716FF1CBD2DE9FC47044604
:102E00000D4617461E46DDE90A898DF800408DF80B
:102E100001508DF802708DF804608DF805808DF8F2
:102E200006906846FFF7B7FFBDE8FC8730B501465E
:102E30000878087008789B4D00FB05F20878401E62
:102E4000012505EBA000C4B24FF4B46000FB0422DE
:102E5000087800F0030008B1012400E0002448785D
:102E600008B9002030BD00230AE004EB44008E4D79
:102E700005EB8000C05C4FF4B46505FB00225B1CD1
:102E80004878401E9842F0D8887808B90020E9E7D1
:102E90008878401E4FF4B46505FB002208793C2574
:102EA00005FB0022487902441046DBE730B50446B2
:102EB0002046FFF7BBFFC0EB00108500A07905445A
:102EC000284630BDF0B5044600268E713C26B4FB82
:102ED000F6F5B4FBF6F706FB17464E7142F23826BC
:102EE00095FBF6F295FBF6F706FB17530A700126E1
:102EF00006EBA20606EB4606A3EBC60302F00306AA
:102F00000EB1012200E00022002016E002EB420692
:102F1000654F07EB8606365C06EB4606B3EBC60F3D
:102F200000DA0CE002EB42065F4F07EB8606365CE8
:102F300006EB4606A3EBC603401C0C28E6DB00BFED
:102F4000461C4E70182693FBF6F68E70182693FBDF
:102F5000F6F706FB17360E718E78761C8E70F0BD74
:102F6000F0B504464FF46167B4FBF7F3B4FBF7FC2C
:102F700007FB1C463C27B6FBF7F74F713C27B6FB17
:102F8000F7FC07FB1C678F7100200DE000F00307C2
:102F900017B142F2382501E042F25025AB4201D38D
:102FA0005B1B00E002E0401C6428EFD300BF087008
:102FB00000F003070FB1012000E00020002218E01C
:102FC00000EB4007DFF8E0C00CEB8707BF5C07EBC6
:102FD0004707B3EBC70F00D20DE000EB4007DFF867
:102FE000C8C00CEB8707BF5C07EB4707A3EBC70321
:102FF000521C0C2AE4D300BF571C4F701827B3FB98
:10300000F7F78F701827B3FBF7FC07FB1C370F711E
:103010008F787F1C8F70254FB4FBF7FC07FB1C4596
:1030200015B16F1ECF7001E00627CF70F0BDF0B56F
:1030300003460C461546642093FBF0F0C6B26420AC
:1030400093FBF0F700FB1730C1B2132E02DD01F144
:103050006400C1B20846CF1701EB977701EBA707D1
:10306000BAB2072092FBF0F700FB172082B2571983
:10307000601EDFF83CC01CF80000384482B2CF1755
:1030800001EB9777BF10A1EB87071FB9032C01DA7B
:10309000501E82B2072092FBF0F700FB1720C0B24F
:1030A000F0BD00002005080088000020803A0900DB
:1030B000A0EE020810B50446FFF791F88820FFF74C
:1030C0003CF9FFF7CDF808B1012010BD2012FFF741
:1030D00034F9FFF7C5F808B10120F6E7E0B2FFF7D1
:1030E0002CF9FFF7BDF808B10120EEE7FFF799F8DA
:1030F000052001F0ECF80020E7E710B543F2A2004C
:10310000FFF7D8FF08B1012010BD052001F0DFF85E
:103110000020F9E710B542F60640FFF7CBFF08B1F3
:10312000012010BD052001F0D2F80020F9E710B50C
:1031300042F23770FFF7BEFF08B1012010BD052035
:1031400001F0C5F80020F9E710B5FFF7D6FF08B188
:10315000012010BDFFF7DEFF08B10120F9E7FFF7FE
:10316000E6FF08B10120F4E70020F2E72DE9FF5F58
:1031700082468B4642F23010FFF79CFFFFF72FF894
:103180008920FFF7DAF8FFF76BF818B1012004B0D7
:10319000BDE8F09F0120FFF704F98DF80C00012035
:1031A000FFF7FFF88DF80D000120FFF7FAF8012076
:1031B000FFF7F7F88DF808000120FFF7F2F88DF817
:1031C0000900FFF72EF89DF80D209DF80C1002EB7A
:1031D000012015F076FB0646114A124B15F082FAD3
:1031E00004460022104B15F0EFFA80460F4A104BB0
:1031F00015F072FACDE9000115F02AFCCAF80000BA
:103200009DF809109DF8080001EB00206421484357
:103210004FF6FF7190FBF1F08BF800000020B6E74D
:10322000D7A3703D0AF76540E0FFEF40CDCCCCCC92
:10323000CC6C474030B589B005460C4601210420CE
:1032400002F0B0F98020ADF8200028208DF823008E
:1032500008A9584801F0DCFE8021564801F087FF9C
:10326000ADF81850ADF814400020ADF81A00ADF8D4
:10327000160005A9504803F02BFA0420ADF8080009
:103280000020ADF80A000120ADF80C000020ADF8D8
:103290000E00ADF8100002A9474803F0ACFC1E2058
:1032A0008DF8040001208DF8050000208DF806003F
:1032B00001208DF8070001A804F049F8012205213A
:1032C0003D4803F07CFD01213B4803F05DFD09B062
:1032D00030BD38B504469CB14FF48040ADF80000D5
:1032E00010208DF8030003208DF802006946334852
:1032F00001F08EFE4FF48041304801F038FF0AE0C3
:103300004FF48040ADF8000004208DF803006946BA
:103310002A4801F07DFE38BD10B52948007800F03C
:103320008000002841D10421234803F0F6FF002843
:103330003BD02348007800F0400018B320480078C4
:1033400040F080001E4908701B4803F0CAFF1D4969
:1033500008800846008840001B490861084600694B
:10336000B0F5FA6F02D94FF4FA6008611748007897
:1033700020F00400001D1549087000210E4803F0DC
:10338000C7FE12E000200E4908700E490880002197
:10339000094803F08DFF0A48007840F040000849D2
:1033A00008700221044803F0B3FE0521024803F02F
:1033B000C5FF10BD000C014000080040000801409E
:1033C000A8000020AA000020F0060020A005002090
:1033D00010B50120F6490860642000F04DFF002080
:1033E000F449C1F89401642000F046FF0120F0493F
:1033F00008600A2000F040FF0020EE49C1F8940167
:10340000642000F039FF0120E9490860642000F0E1
:1034100033FF10BD70B504460020E7490860E74956
:10342000C1F8B0010520FBF771FC2046FBF76EFCEC
:103430000020FBF76BFC05460120DF4908602846A9
:1034400070BD70B505460C460020DB490860DB49BD
:10345000C1F8B0010420FBF759FC2846FBF756FCE5
:103460002046FBF753FC0120D349086070BD10B51E
:103470000024FFF7ADFF0620FFF7CCFF0446332101
:103480003520FFF7DEFF55211B20FFF7DAFFAA21C9
:10349000B320FFF7D6FF3520FFF7BCFF04461B2003
:1034A000FFF7B8FF0446B320FFF7B4FF0446FFF769
:1034B0008FFF0620FFF7AEFF04460620FFF7AAFFA6
:1034C00004463520FFF7A6FF0446B320FFF7A2FF0E
:1034D0000446FFF77DFF10BD0EB5042000900020CC
:1034E0008DF804000C208DF8050000208DF80600F2
:1034F000684602F013FE08208DF8080000208DF8C1
:10350000090002208DF80A0000208DF80B0002A8A7
:1035100003F01DFF0EBD1FB5FBF7A5FB2020ADF886
:103520000C0003208DF80E0010208DF80F0003A969
:10353000A34801F06DFD4020ADF80C0003208DF88C
:103540000E0010208DF80F0003A99E4801F060FDC9
:1035500040219C4801F009FE0420ADF80C00032036
:103560008DF80E0048208DF80F0003A9944801F053
:103570004FFD4FF48050ADF80C0003208DF80E0085
:1035800010208DF80F0003A98F4801F041FD0420A1
:1035900002F03BFE0221084601F050FE042001909B
:1035A00000208DF808000C208DF8090001208DF80E
:1035B0000A0001A802F0B2FD08208DF800000220E8
:1035C0008DF8010001208DF802008DF80300684697
:1035D00003F0BDFEFFF74BFF00207C4908701FBDC4
:1035E0001CB50620FFF716FF044613E07848006874
:1035F000401C774908606B46012201A9754808F014
:1036000095F99DF804100120FFF71BFF0620FFF736
:1036100001FF044604F0080028B96D4800686E49AF
:1036200009688842E2D96A4800686B49096888429B
:1036300036D30121BC20FFF704FF10212920FFF71A
:1036400000FF03E000212B20FFF7FBFEBA20FFF76D
:10365000E1FE00F020000028F4D00021BA20FFF79E
:10366000F0FE0021BC20FFF7ECFE00205B49087053
:1036700001210820FFF7E5FE00210820FFF7E1FE09
:1036800000213320FFF7DDFE524808F081FB0820BF
:103690005349087000204D490870052005F055FE7B
:1036A0001CBD10B500242B20FFF7B4FE4D49087057
:1036B0004B48007808283AD100212920FFF7C1FEA5
:1036C00000210220FFF7BDFE4648007800F0100000
:1036D00008B3B220FFF79EFE21281CD1BF20FFF7C0
:1036E00099FE352817D1BA20FFF794FE0446012C25
:1036F00002D1C520FFF78EFE002C08DD042C06DC6D
:1037000010203249087001203749087006E0112066
:103710002E49087002E011202C49087000212B204E
:10372000FFF78FFE00211C20FFF78BFE10BD292024
:10373000FFF770FE2D4908700220FFF76BFE2C4941
:10374000087000212920FFF77CFE00210220FFF7EE
:1037500078FEBA20FFF75EFE00F0200038B30021AB
:103760002B20FFF76EFE0021BA20FFF76AFE002132
:10377000BC20FFF766FE00201849087001210820D0
:10378000FFF75FFE00210820FFF75BFE00213320DA
:10379000FFF757FE0F4808F0FBFA082010490870A1
:1037A00000200A490870052005F0CFFDBEE721E0A2
:1037B00094012242000022429881214200002142CD
:1037C00000100140000C014000080140BD00002035
:1037D000B8000020CC070020B4000020B100002079
:1037E000AD000020AE000020AC000020AF000020A3
:1037F000B0000020FA480068FA490968884214D3EA
:103800000121BC20FFF71DFE10212920FFF719FE22
:10381000F54808F0BDFA0820F44908700020F44982
:103820000870052005F091FD80E7FFF7D9FEF1480B
:1038300001782920FFF705FEEF4801780220FFF705
:1038400000FE00BF72E710B503F02BFF042002F06A
:10385000CBFC38B1FFF725FF042002F0C1FC0420A7
:1038600002F0D3FC03F038FF10BD70B50025062030
:10387000FFF7D0FD044608E0FF210120FFF7E1FD3E
:103880006D1C0620FFF7C6FD044604F00800002862
:10389000F2D070BD10B50020D14908600120D74991
:1038A0000870CF480068CF490968884200D310BD2E
:1038B000FFF7DBFF0021BA20FFF7C3FD48211720E7
:1038C000FFF7BFFD01213320FFF7BBFD04212920B5
:1038D000FFF7B7FD01210220FFF7B3FD5A21852034
:1038E000FFF7AFFD042002F090FC00BFDFE710B54A
:1038F0000446C4F10F000007840E44F0C3018E207B
:10390000FFF79FFD78218720FFF79BFD10BD10B5C5
:103910000020BA4908700620FFF77CFD35211720EA
:10392000FFF78FFD0A2000F0A7FC0620FFF772FDCD
:1039300003218920FFF785FD052000F09DFC432130
:10394000CF20FFF77EFD052000F096FC0221CB2062
:10395000FFF777FD0A211120FFF773FDA3480078D8
:10396000402810D100211E20FFF76BFD0F211920E8
:10397000FFF767FD18211B20FFF763FD2B211D209A
:10398000FFF75FFD0FE000211E20FFF75AFD3F21EA
:103990001920FFF756FD48211B20FFF752FD1F217C
:1039A0001D20FFF74EFD0A2000F066FC0421CD200B
:1039B000FFF747FD4C211720FFF743FD052000F0DE
:1039C0005BFC0021B920FFF73CFD4F21CF20FFF722
:1039D00038FDFF216F20FFF734FD10BD10B54020EA
:1039E00082490870FFF793FF0221BD20FFF729FDF0
:1039F00048211720FFF725FD0A2000F03DFC522149
:103A00008520FFF71EFD00218F20FFF71AFD002102
:103A10008120FFF716FD00218320FFF712FDFF2113
:103A20008E20FFF70EFDFF218D20FFF70AFD0120FC
:103A300000F022FCFF218720FFF703FDFF218920F2
:103A4000FFF7FFFC012000F017FC00212220FFF708
:103A5000F8FC00212320FFF7F4FCEF212020FFF7E2
:103A6000F0FC07212120FFF7ECFC77212420FFF751
:103A7000E8FC03212520FFF7E4FCBB212620FFF70B
:103A8000E0FC01212720FFF7DCFC10BD70B50446E7
:103A90000D46FFF79DFC4FF40A71534814F061FC8A
:103AA00001222146504807F081FE80B90120534988
:103AB00008704D48C068401E4A490860FFF78EFFF5
:103AC0002846FFF714FFFFF7E5FE002070BD012038
